:020000040000FA
:100000000C9462000C94C4030C949D030C948A001D
:100010000C948A000C948A000C948A000C948A0038
:100020000C948A000C948A000C948A000C948A0028
:100030000C948A000C948A000C948A000C948A0018
:100040000C9453030C948A000C9411040C94EB034D
:100050000C948A000C948A000C948A000C948A00F8
:100060000C948A000C948A000000000024002700F1
:100070002A0000000000250028002B0000000000DE
:1000800023002600290004040404040404040202DA
:100090000202020203030303030301020408102007
:1000A0004080010204081020010204081020000012
:1000B0000008000201000003040700000000000027
:1000C0000000860611241FBECFEFD8E0DEBFCDBFF3
:1000D00011E0A0E0B1E0ECE9F2E102C005900D9280
:1000E000A237B107D9F722E0A2E7B1E001C01D9223
:1000F000AC31B207E1F710E0C2E6D0E004C02197CE
:10010000FE010E944609C136D107C9F70E94430487
:100110000C944C090C940000833081F028F4813059
:1001200099F08230A9F008958730A9F08830C9F09D
:100130008430B1F4809180008F7D03C08091800075
:100140008F7780938000089584B58F7784BD08955C
:1001500084B58F7DFBCF8091B0008F778093B00006
:1001600008958091B0008F7DF9CFCF93DF93282F32
:1001700030E0F901E255FF4F8491F901E656FF4F57
:10018000D491F901EA57FF4FC491CC23A1F081111A
:100190000E948C00EC2FF0E0EE0FFF1FE458FF4FA1
:1001A000A591B491EC91ED2381E090E009F480E019
:1001B000DF91CF91089580E090E0FACF1F93CF9325
:1001C000DF93282F30E0F901E255FF4F8491F901C8
:1001D000E656FF4FD491F901EA57FF4FC491CC2363
:1001E000A9F0162F81110E948C00EC2FF0E0EE0F89
:1001F000FF1FEE58FF4FA591B4918FB7F894EC9183
:10020000111108C0D095DE23DC938FBFDF91CF9111
:100210001F910895DE2BF8CFCF93DF9390E0FC0180
:10022000E656FF4F24918A579F4FFC018491882303
:10023000C9F090E0880F991FFC01E859FF4FA59184
:10024000B491FC01EE58FF4FC591D49161110DC0DE
:100250009FB7F8948C91209582238C9388812823D2
:1002600028839FBFDF91CF910895623051F49FB7EB
:10027000F8943C91822F809583238C93E8812E2BD8
:10028000EFCF8FB7F894EC912E2B2C938FBFEACF42
:100290001F93CF93DF93182FEB0161E00E940C01B5
:1002A000209739F460E0812FDF91CF911F910C945A
:1002B000DE00CF3FD10511F461E0F5CFE12FF0E092
:1002C000E255FF4FE491E33031F140F4E130B1F019
:1002D000E230E1F0C038D1057CF7E4CFE73029F116
:1002E000E83059F1E430B1F780918000806280936A
:1002F0008000D0938B00C0938A0004C084B58068CE
:1003000084BDC7BDDF91CF911F91089584B58062F0
:1003100084BDC8BDF7CF8091800080688093800045
:10032000D0938900C0938800EDCF8091B0008068A1
:100330008093B000C093B300E5CF8091B00080629D
:100340008093B000C093B400DDCF8E508064809362
:100350007C0080917A00806480937A0080917A009A
:1003600086FDFCCF809178009091790008950895E2
:10037000AF92BF92CF92DF92EF92FF920F931F93B3
:10038000CF93DF936C017B018B01040F151FEB01F1
:100390005E01AE18BF08C017D10759F06991D601A8
:1003A000ED91FC910190F081E02DC6010995892B1A
:1003B00079F7C501DF91CF911F910F91FF90EF90D9
:1003C000DF90CF90BF90AF900895FC01538D448D86
:1003D000252F30E0842F90E0821B930B541710F0F0
:1003E000CF96089501970895FC01918D828D9817FD
:1003F00061F0A28DAE0FBF2FB11D5D968C91928DD5
:100400009F5F9F73928F90E008958FEF9FEF089505
:10041000FC01918D828D981731F0828DE80FF11DCE
:10042000858D90E008958FEF9FEF0895FC01918DE9
:10043000228D892F90E0805C9F4F821B91098F73E2
:10044000992708958FE791E00E94160221E0892BF9
:1004500009F420E0822F089580E090E0892B29F0B4
:100460000E94220281110C9400000895FC01A48DC9
:10047000A80FB92FB11DA35ABF4F2C91848D90E0C6
:1004800001968F739927848FA689B7892C93A089A9
:10049000B1898C91837080648C93938D848D981333
:1004A00006C00288F389E02D80818F7D80830895C6
:1004B000EF92FF920F931F93CF93DF93EC0181E0B4
:1004C000888F9B8D8C8D98131AC0E889F98980815B
:1004D00085FF15C09FB7F894EE89FF896083E8898E
:1004E000F98980818370806480839FBF81E090E080
:1004F000DF91CF911F910F91FF90EF900895F62E0D
:100500000B8D10E00F5F1F4F0F731127E02E8C8DA6
:100510008E110CC00FB607FCFACFE889F9898081EB
:1005200085FFF5CFCE010E943602F1CFEB8DEC0FA7
:10053000FD2FF11DE35AFF4FF0829FB7F8940B8F08
:10054000EA89FB8980818062CFCFCF93DF93EC0172
:10055000888D8823B9F0AA89BB89E889F9898C91AB
:1005600085FD03C0808186FD0DC00FB607FCF7CF67
:100570008C9185FFF2CF808185FFEDCFCE010E9467
:100580003602E9CFDF91CF910895FC010190002060
:10059000E9F73197AF01481B590BBC018FE791E098
:1005A0000C94B8018F929F92AF92BF920F931F93BA
:1005B000CF93DF93CDB7DEB7A1970FB6F894DEBF28
:1005C0000FBECDBF19A2423008F44AE08E010F5D84
:1005D0001F4F842E912CB12CA12CA50194010E94B7
:1005E000D206E62FB901CA01EA30F4F4E05DD80181
:1005F000EE938D01232B242B252B79F790E080E0BF
:10060000109719F0CD010E94C502A1960FB6F8947B
:10061000DEBF0FBECDBFDF91CF911F910F91BF9075
:10062000AF909F908F900895E95CE1CFCF93DF93D7
:100630000E94C502EC0186E191E00E94C5028C0F88
:100640009D1FDF91CF910895CF93DF9382E00E94A9
:10065000B500EC0183E00E94B500AC0121E0CD2B98
:1006600009F420E091E0452B09F490E0291779F096
:10067000809174019091750101969093750180931A
:10068000740181E291E0DF91CF910C941603809187
:100690007401909175010197909375018093740195
:1006A00089E191E0F0CF1F920F920FB60F921124C3
:1006B0002F933F938F939F93AF93BF9380917B0131
:1006C00090917C01A0917D01B0917E0130917A01E1
:1006D00023E0230F2D3758F50196A11DB11D20935E
:1006E0007A0180937B0190937C01A0937D01B0936C
:1006F0007E018091760190917701A0917801B0916F
:1007000079010196A11DB11D809376019093770127
:10071000A0937801B0937901BF91AF919F918F9190
:100720003F912F910F900FBE0F901F90189526E8C4
:10073000230F0296A11DB11DD2CF1F920F920FB6AB
:100740000F9211242F933F934F935F936F937F9357
:100750008F939F93AF93BF93EF93FF93E091020129
:10076000F09103010995FF91EF91BF91AF919F9196
:100770008F917F916F915F914F913F912F910F904A
:100780000FBE0F901F9018951F920F920FB60F92E9
:1007900011242F933F934F935F936F937F938F9386
:1007A0009F93AF93BF93EF93FF93E0910001F0917C
:1007B00001010995FF91EF91BF91AF919F918F91A9
:1007C0007F916F915F914F913F912F910F900FBE4D
:1007D0000F901F9018951F920F920FB60F92112431
:1007E0002F933F934F935F936F937F938F939F9339
:1007F000AF93BF93EF93FF938FE791E00E94360290
:10080000FF91EF91BF91AF919F918F917F916F91E8
:100810005F914F913F912F910F900FBE0F901F90BE
:1008200018951F920F920FB60F9211242F938F934A
:100830009F93EF93FF93E0918F01F091900180815E
:10084000E0919501F091960182FD1BC0908180910D
:1008500098018F5F8F7320919901821741F0E09189
:100860009801F0E0E158FE4F958F80939801FF9139
:10087000EF919F918F912F910F900FBE0F901F902E
:1008800018958081F4CF789484B5826084BD84B556
:10089000816084BD85B5826085BD85B5816085BD7B
:1008A00080916E00816080936E0010928100809133
:1008B00081008260809381008091810081608093BB
:1008C0008100809180008160809380008091B100E0
:1008D00084608093B1008091B00081608093B0000B
:1008E00080917A00846080937A0080917A0082609F
:1008F00080937A0080917A00816080937A00809161
:100900007A00806880937A001092C10060E082E0F3
:100910000E940C0160E083E00E940C01E0918F01D5
:10092000F091900182E08083E0918B01F0918C0145
:100930001082E0918D01F0918E018FEC80831092F6
:100940009701E0919301F091940186E08083E0911A
:100950009101F0919201808180618083E091910109
:10096000F0919201808188608083E0919101F09103
:100970009201808180688083E0919101F0919201E1
:1009800080818F7D808382E00E94B50060E08EE0F0
:100990000E940C0162E084E00E940C0162E085E0AC
:1009A0000E940C0161E087E00E940C0161E086E09A
:1009B0000E940C0161E088E00E940C0161E089E086
:1009C0000E940C0184E293E0909301018093000166
:1009D000809169008C7F816080936900E89AC0E013
:1009E000D0E080E10E94A501BC01990F880B990B12
:1009F0000E9418082AE038E240EA5BE30E94CD0832
:100A000020E030E040E250E40E9403072FE832EC9F
:100A100045E75DE30E9475076B017C0120E030E053
:100A2000A9010E94C80818160CF095C020E030E01B
:100A300040EA50E4C701B6010E94C80818160CF439
:100A400094C0E0907401F0907501809174019091D0
:100A5000750120917201309173012817390709F44B
:100A60004FC081E591E00E94C50280907401909092
:100A70007501092C000CAA08BB084AE0C501B401A5
:100A8000B7FE0DC06DE28FE791E00E945802662725
:100A90007727CB01681979098A099B094AE00E94E6
:100AA000D202B701FF0C880B990B0E94180820E0B6
:100AB00030E044EB53E40E94CD0820E030E040E415
:100AC00052E40E9475076B017C014B015C018CE5CF
:100AD00091E00E94C502A7019601C701B6010E94DC
:100AE0003A09882309F456C085E691E00E94C502C0
:100AF00080917401909175019093730180937201BC
:100B00008EE00E94A5012FEF30E0DC010E943F093A
:100B10002FEF33E040E050E00E94B306490184E04B
:100B20000E94B5007C0185E00E94B500EF2809F025
:100B3000C5C0892B09F4DFC0B40189E00E944801D7
:100B400060E087E00E94DE0060E086E00E94DE0058
:100B500061E088E0C3C020E030E040EA50ECC7012B
:100B6000B6010E94700787FF6CCF60E086E00E94AC
:100B7000DE0061E087E00E94DE0060E089E00E9424
:100B8000DE0061E088E00E94DE008CE291E00E94DD
:100B9000160357CF26013701E89477F82FEF3FEF80
:100BA0004FE75FE7C301B2010E943A0981110DC00E
:100BB0002FEF3FEF4FE75FE7C301B2010E947007DD
:100BC00018161CF489E691E091CF2FEF3FEF4FE725
:100BD0005FE4C701B6010E94C80818161CF48DE630
:100BE00091E084CF2FEF3FEF4FE75FECC701B601F5
:100BF0000E94700787FDF3CF20E030E0A901C70114
:100C0000B6010E94700787FF0BC06DE28FE791E08D
:100C10000E94580246015701B7FAB094B7F8B09451
:100C20002AE037ED43EA5BE3C501B4010E94040703
:100C30004B015C010E94E7076B017C010E941608D2
:100C40009B01AC01C501B4010E9403074B015C018B
:100C50004AE0C701B6010E94D2026EE28FE791E03E
:100C60000E94580220E030E040E251E4C501B401A6
:100C70000E94CD084B015C010E94E7076B01F12C3B
:100C8000E12C4AE0C701B6010E94D202C701B601B9
:100C90000E9416089B01AC01C501B4010E94030724
:100CA00020E030E040E251E40E94CD080E94E707D6
:100CB00090E080E04AE00E94D2021ACF892BD9F45A
:100CC000B40186E00E94480160E088E00E94DE00F6
:100CD00060E089E00E94DE0061E087E00E94DE00C3
:100CE000209709F47ECE0E942202882309F479CE4F
:100CF0000E94000076CE60E086E00E94DE0061E0A7
:100D000087E00E94DE0060E089E020CFEFE7F1E0BD
:100D10001382128288EE93E0A0E0B0E08483958392
:100D2000A683B78388E091E09183808385EC90E08F
:100D30009587848784EC90E09787868780EC90E0A5
:100D4000918B808B81EC90E0938B828B82EC90E096
:100D5000958B848B86EC90E0978B868B118E128E10
:100D6000138E148E0895052E97FB1EF400940E9496
:100D7000CA0657FD07D00E94D20607FC03D04EF4E6
:100D80000C94CA0650954095309521953F4F4F4F92
:100D90005F4F089590958095709561957F4F8F4F27
:100DA0009F4F0895A1E21A2EAA1BBB1BFD010DC087
:100DB000AA1FBB1FEE1FFF1FA217B307E407F5070B
:100DC00020F0A21BB30BE40BF50B661F771F881FE7
:100DD000991F1A9469F760957095809590959B017D
:100DE000AC01BD01CF010895A29FB001B39FC00126
:100DF000A39F700D811D1124911DB29F700D811D47
:100E00001124911D08955058BB27AA270E941B0743
:100E10000C948E080E94800838F00E94870820F009
:100E200039F49F3F19F426F40C947D080EF4E095F4
:100E3000E7FB0C947708E92F0E949F0858F3BA1734
:100E4000620773078407950720F079F4A6F50C94E0
:100E5000C1080EF4E0950B2EBA2FA02D0B01B9019D
:100E600090010C01CA01A0011124FF27591B99F020
:100E7000593F50F4503E68F11A16F040A22F232F2C
:100E8000342F4427585FF3CF469537952795A7957C
:100E9000F0405395C9F77EF41F16BA0B620B730B23
:100EA000840BBAF09150A1F0FF0FBB1F661F771F94
:100EB000881FC2F70EC0BA0F621F731F841F48F449
:100EC000879577956795B795F7959E3F08F0B0CFD2
:100ED0009395880F08F09927EE0F979587950895B9
:100EE0000E94530808F481E008950E9489070C9439
:100EF0008E080E94870858F00E94800840F029F46C
:100F00005F3F29F00C94770851110C94C2080C949F
:100F10007D080E949F0868F39923B1F3552391F34C
:100F2000951B550BBB27AA2762177307840738F058
:100F30009F5F5F4F220F331F441FAA1FA9F335D0B5
:100F40000E2E3AF0E0E832D091505040E695001C69
:100F5000CAF72BD0FE2F29D0660F771F881FBB1F23
:100F6000261737074807AB07B0E809F0BB0B802D01
:100F7000BF01FF2793585F4F3AF09E3F510578F02D
:100F80000C9477080C94C2085F3FE4F3983ED4F3C6
:100F9000869577956795B795F7959F5FC9F7880F01
:100FA000911D9695879597F90895E1E0660F771F53
:100FB000881FBB1F621773078407BA0720F0621BE4
:100FC000730B840BBA0BEE1F88F7E09508950E940F
:100FD000A70888F09F5798F0B92F9927B751B0F01C
:100FE000E1F0660F771F881F991F1AF0BA95C9F7AD
:100FF00014C0B13091F00E94C108B1E008950C9482
:10100000C108672F782F8827B85F39F0B93FCCF334
:10101000869577956795B395D9F73EF49095809529
:10102000709561957F4F8F4F9F4F0895E89409C049
:1010300097FB3EF490958095709561957F4F8F4F0B
:101040009F4F9923A9F0F92F96E9BB279395F69521
:10105000879577956795B795F111F8CFFAF4BB0F9F
:1010600011F460FF1BC06F5F7F4F8F4F9F4F16C003
:10107000882311F096E911C0772321F09EE8872F8D
:10108000762F05C0662371F096E8862F70E060E049
:101090002AF09A95660F771F881FDAF7880F9695C2
:1010A000879597F90895990F0008550FAA0BE0E866
:1010B000FEEF16161706E807F907C0F0121613061A
:1010C000E407F50798F0621B730B840B950B39F45A
:1010D0000A2661F0232B242B252B21F408950A26C0
:1010E00009F4A140A6958FEF811D811D089597F900
:1010F0009F6780E870E060E008959FEF80EC0895BE
:1011000000240A94161617061806090608950024E6
:101110000A9412161306140605060895092E039460
:10112000000C11F4882352F0BB0F40F4BF2B11F4D4
:1011300060FF04C06F5F7F4F8F4F9F4F089557FD33
:101140009058440F551F59F05F3F71F04795880F35
:1011500097FB991F61F09F3F79F0879508951216CC
:1011600013061406551FF2CF4695F1DF08C0161678
:1011700017061806991FF1CF869571056105089429
:101180000895E894BB2766277727CB0197F9089540
:101190000E94530808F48FEF08950E94E0080C9411
:1011A0008E080E94800838F00E94870820F095235E
:1011B00011F00C9477080C947D0811240C94C2084B
:1011C0000E949F0870F3959FC1F3950F50E0551F43
:1011D000629FF001729FBB27F00DB11D639FAA278C
:1011E000F00DB11DAA1F649F6627B00DA11D661FDB
:1011F000829F2227B00DA11D621F739FB00DA11DFC
:10120000621F839FA00D611D221F749F3327A00DB5
:10121000611D231F849F600D211D822F762F6A2F51
:1012200011249F5750409AF0F1F088234AF0EE0FB6
:10123000FF1FBB1F661F771F881F91505040A9F7E3
:101240009E3F510580F00C9477080C94C2085F3FD4
:10125000E4F3983ED4F3869577956795B795F7951F
:10126000E7959F5FC1F7FE2B880F911D9695879597
:1012700097F908950E945308880B990B08950E94CE
:10128000F406B7FF0895821B930B0895EE0FFF1F1E
:101290000590F491E02D0994F894FFCFB701B701C0
:1012A000000000005802B801E501A5021602F40191
:1012B00008020D0A0020636F756E74657220636CFE
:1012C0006F636B776973650053616665747920435A
:1012D00075746F66663A204F7665726375727265D3
:1012E0006E742044657465637465642100506F7387
:1012F0006974696F6E3A20002C616E676C653A20E4
:0E130000006E616E00696E66006F766600001A
:107E0000112484B714BE81FFF0D085E080938100F7
:107E100082E08093C00088E18093C10086E0809377
:107E2000C20080E18093C4008EE0C9D0259A86E02C
:107E300020E33CEF91E0309385002093840096BBD3
:107E4000B09BFECF1D9AA8958150A9F7CC24DD24C4
:107E500088248394B5E0AB2EA1E19A2EF3E0BF2EE7
:107E6000A2D0813461F49FD0082FAFD0023811F036
:107E7000013811F484E001C083E08DD089C08234E0
:107E800011F484E103C0853419F485E0A6D080C0E4
:107E9000853579F488D0E82EFF2485D0082F10E0AE
:107EA000102F00270E291F29000F111F8ED06801E7
:107EB0006FC0863521F484E090D080E0DECF843638
:107EC00009F040C070D06FD0082F6DD080E0C81688
:107ED00080E7D80618F4F601B7BEE895C0E0D1E017
:107EE00062D089930C17E1F7F0E0CF16F0E7DF06D8
:107EF00018F0F601B7BEE89568D007B600FCFDCFD4
:107F0000A601A0E0B1E02C9130E011968C91119780
:107F100090E0982F8827822B932B1296FA010C0160
:107F200087BEE89511244E5F5F4FF1E0A038BF0790
:107F300051F7F601A7BEE89507B600FCFDCF97BE46
:107F4000E89526C08437B1F42ED02DD0F82E2BD052
:107F50003CD0F601EF2C8F010F5F1F4F84911BD097
:107F6000EA94F801C1F70894C11CD11CFA94CF0C13
:107F7000D11C0EC0853739F428D08EE10CD085E9AC
:107F80000AD08FE07ACF813511F488E018D01DD067
:107F900080E101D065CF982F8091C00085FFFCCF94
:107FA0009093C60008958091C00087FFFCCF809118
:107FB000C00084FD01C0A8958091C6000895E0E648
:107FC000F0E098E1908380830895EDDF803219F02E
:107FD00088E0F5DFFFCF84E1DECF1F93182FE3DFCA
:107FE0001150E9F7F2DF1F91089580E0E8DFEE27F6
:047FF000FF270994CA
:027FFE00040479
:00000001FF
